:100000000C944C000C9469000C9469000C946900E9
:100010000C9469000C9469000C9469000C946900BC
:100020000C9469000C9469000C9469000C946900AC
:100030000C9469000C9469000C9469000C9469009C
:100040000C9469000C9469000C9469000C9469008C
:100050000C9469000C9469000C9469000C9469007C
:100060000C9469000C9469008801680173017A019D
:1000700081019D01A401AB01B2018F0196011F0115
:100080008801680173017A0181019D01A401AB011E
:10009000B2018F0196011F0111241FBECFEFD4E0E2
:1000A000DEBFCDBF11E0A0E0B1E0ECE1F4E002C0C2
:1000B00005900D92A030B107D9F711E0A0E0B1E0B2
:1000C00001C01D92A531B107E1F70E94D9010C943E
:1000D0000C020C940000439A82E08A95F1F7439851
:1000E000809100018F5F809300018A3010F01092A0
:1000F00000010895882321F44198409A409808957A
:10010000419A409A409808950F931F93CF93DF939D
:10011000082F10E002951295107F1027007F1027FE
:10012000107082958F7090E0082B192BC8018C7C81
:100130009070959587959595879503731070000F2E
:10014000111F000F111F082B192BC8018A7A9070FC
:100150009595879505751070000F111F082B10E0FD
:10016000C0E0D0E0C8010C2E02C0959587950A9496
:10017000E2F781700E947A002196C830D10591F78C
:10018000429A82E08A95F1F74298DF91CF911F91D0
:100190000F910895CF93DF93EC010E948400D0FF6C
:1001A00007C0299AD1FD07C02898DF91CF91089503
:1001B0002998D1FFF9CF289ADF91CF910895429ADB
:1001C00082E08A95F1F7429808952BE130E0309370
:1001D000020120930101633250F4653008F063C0DE
:1001E00028EF33E0309314012093130107C023E07C
:1001F00030E030930801209307018F5F10920A01CD
:100200001092090110920C0110920B0110920E0134
:1002100010920D011092100110920F011092120114
:1002200010921101E82FF0E0E831F10570F4EC5C78
:10023000FF4FEE0FFF1F0590F491E02D09948FE31F
:1002400090E09093100180930F011092040110929E
:1002500003011092060110920501653018F16A3011
:1002600048F16F3008F485C0643158F1693108F401
:1002700087C06E3108F496C0633208F488C06832D3
:1002800008F490C06D3208F47BC06233D0F067335D
:1002900008F46FC06C3330F480EC93E09093040169
:1002A0008093030108952CE330E0309308012093FC
:1002B0000701A4CF80EC93E09093040180930301A5
:1002C000089588EF93E090930601809305010895C7
:1002D00080910701909108018068936090930801D4
:1002E00080930701B2CF87E090E090930C01809358
:1002F0000B01ABCF80EE93E090930E0180930D0144
:10030000A4CF80EC93E09093100180930F019DCFD8
:1003100080EF93E0909312018093110196CF8FE0CC
:1003200090E090931201809311018FCF80E893E0C9
:1003300090930C0180930B0188CF88E790E0909315
:100340000C0180930B0181CF80EC91E090930A0126
:10035000809309017ACF8EE390E090930A01809315
:10036000090173CF8FE190E090930E0180930D010E
:100370006CCF87E090E0909306018093050108958B
:100380008FE390E09093040180930301089580919E
:10039000010190910201806C93609093020180931F
:1003A000010108958FEF93E090930401809303017E
:1003B0000895CF93DF938FE787B987E084B940989A
:1003C0002A9A82E08A95F1F72A9880E090E032E05C
:1003D000439A232F2A95F1F7439801968930910586
:1003E000B9F780E090E00E94CA0086E16AE30E94CB
:1003F000E500C0EDD7E0E0910001F0E0EE0FFF1F57
:10040000EF5FFE4F808191810E94CA000E946B00C5
:0C041000CE010197F1F7EFCFF894FFCF79
:00000001FF
