:100000000C944C000C9469000C9469000C946900E9
:100010000C9469000C9469000C9469000C946900BC
:100020000C9469000C9469000C9469000C946900AC
:100030000C9469000C9469000C94EF020C94690014
:100040000C9469000C9469000C9469000C9469008C
:100050000C9469000C9469000C9469000C9469007C
:100060000C9469000C946900420222022D023402B1
:100070003B0257025E0265026C0249025002D9013E
:10008000420222022D0234023B0257025E02650246
:100090006C0249025002D90111241FBECFEFD4E0F7
:1000A000DEBFCDBF11E0A0E0B1E0ECE5F6E002C0BC
:1000B00005900D92A030B107D9F711E0A0E0B1E0B2
:1000C00001C01D92A731B107E1F70E9493020C9481
:1000D0002C030C94000088E28093B800E9EBF0E078
:1000E00080818C7F8083ECEBF0E080818460808372
:1000F0000895ECEBF0E080818B7F8083089584EAA3
:100100008093BC008091BC0087FFFCCF089584E9F8
:100110008093BC008091BC0084FDFCCF0895809347
:10012000BB0084E88093BC008091BC0087FFFCCFBB
:100130008091B900887F883179F08091B900887FFB
:10014000883241F09091B900987F81E0903419F0A5
:1001500080E0089581E0089581E00895662301F12B
:100160002091BC0020642093BC002091BC0020683A
:100170002093BC002091BC0027FFFCCF2091B90048
:10018000287F283539F02091B900287F203511F0DB
:1001900080E008952091BB00FC01208381E0089558
:1001A0002091BC002F7B2093BC00DFCF1F93CF9307
:1001B000DF93182FEB010E947F0080ED0E948F00DB
:1001C000882329F480E0DF91CF911F910895812F3A
:1001D0000E948F008823B1F30E947F0081ED0E946E
:1001E0008F00882379F3CE0160E00E94AE0088235F
:1001F00049F30E94870081E0E6CF0F931F93182FE9
:10020000062F0E947F0080ED0E948F00882321F43A
:1002100080E01F910F910895812F0E948F00882305
:10022000B9F3802F0E948F00882391F30E948700EA
:1002300081E0EFCF439A82E08A95F1F7439880916D
:1002400000018F5F809300018A3010F0109200014E
:100250000895882321F44198409A40980895419A3E
:10026000409A409808950F931F93CF93DF93082FE0
:1002700010E002951295107F1027007F1027107054
:1002800082958F7090E0082B192BC8018C7C9070A0
:10029000959587959595879503731070000F111F9D
:1002A000000F111F082B192BC8018A7A90709595A1
:1002B000879505751070000F111F082B10E0C0E026
:1002C000D0E0C8010C2E02C0959587950A94E2F7FC
:1002D00081700E9429012196C830D10591F7DF91E4
:1002E000CF911F910F910895CF93DF93EC010E945E
:1002F0003301D0FF0CC0299AD1FD0CC02898429A36
:1003000082E08A95F1F74298DF91CF91089529987C
:10031000D1FFF4CF289AF3CF429A82E08A95F1F781
:10032000429808952BE130E03093040120930301BB
:100330001092160110921501633298F4653008F09E
:100340006CC028EF33E03093160120931501209103
:10035000090130910A01207C30930A0120930901A0
:1003600007C023E030E030930A01209309018F5F3A
:1003700010920C0110920B0110920E0110920D01BF
:100380001092100110920F0110921201109211019F
:100390001092140110921301E82FF0E0E831F105FA
:1003A00070F4EC5CFF4FEE0FFF1F0590F491E02D11
:1003B00009948FE390E090931201809311011092C1
:1003C0000601109205011092080110920701653094
:1003D00018F16A3048F16F3008F485C0643158F183
:1003E000693108F487C06E3108F496C0633208F4AE
:1003F00088C0683208F490C06D3208F47BC0623364
:10040000D0F0673308F46FC06C3330F480EC93E0C5
:10041000909306018093050108952CE330E030931A
:100420000A0120930901A4CF80EC93E09093060188
:1004300080930501089588EF93E0909308018093DD
:10044000070108958091090190910A0180689360E5
:1004500090930A0180930901B2CF87E090E09093D6
:100460000E0180930D01ABCF80EE93E090931001CD
:1004700080930F01A4CF80EC93E0909312018093BE
:1004800011019DCF80EF93E09093140180931301AD
:1004900096CF8FE090E090931401809313018FCF5B
:1004A00080E893E090930E0180930D0188CF88E758
:1004B00090E090930E0180930D0181CF80EC91E04C
:1004C00090930C0180930B017ACF8EE390E0909390
:1004D0000C0180930B0173CF8FE190E0909310019A
:1004E00080930F016CCF87E090E090930801809398
:1004F000070108958FE390E0909306018093050132
:1005000008958091030190910401806C9360909311
:1005100004018093030108958FEF93E09093060107
:10052000809305010895CF93DF930E946B00789428
:100530008FE787B987E084B954985C9A80E060E0DF
:100540000E94FD0087E060E10E94FD008CE387BD12
:1005500084B58E7F84BD84B5826084BD85B5877F78
:1005600085BD80916E00826080936E0085B581604C
:1005700085BD85B5826085BD85B5846085BD4198A2
:100580002A9A82E08A95F1F72A9880E090E032E09A
:10059000439A232F2A95F1F74398019689309105C4
:1005A000B9F780E090E00E947401809101016091B0
:1005B00002010E949201C0EDD7E0E0910001F0E05D
:1005C000EE0FFF1FED5FFE4F808191810E9474014D
:1005D0000E941A01CE010197F1F7EFCF08951F9203
:1005E0000F920FB60F9211242F933F934F935F9367
:1005F0006F937F938F939F93AF93BF93EF93FF93EB
:10060000609102016F5F609302016C3310F11092F0
:100610000201809101018F5F809301018831B8F060
:100620001092010160E080E00E949201FF91EF9141
:10063000BF91AF919F918F917F916F915F914F91FA
:100640003F912F910F900FBE0F901F90189560E073
:0C065000EBCF80910101E8CFF894FFCFC0
:00000001FF
